:020000040000FA
:100000000C9461000C9473000C9473000C947300B6
:100010000C9473000C9473000C9473000C94730094
:100020000C9473000C9473000C9473000C94730084
:100030000C9473000C9473000C9473000C94730074
:100040000C9467020C9473000C9473000C9473006E
:100050000C9473000C9473000C9473000C94730054
:100060000C9473000C94730000000000240027001F
:100070002A0000000000250028002B0000000000DE
:1000800023002600290004040404040404040202DA
:100090000202020203030303030301020408102007
:1000A0004080010204081020010204081020000012
:1000B0000008000201000003040700000000000027
:1000C000000011241FBECFEFD8E0DEBFCDBF21E07E
:1000D000A0E0B1E001C01D92AB30B207E1F70E9491
:1000E000B1020C943E050C940000833081F028F49A
:1000F000813099F08230A9F008958730A9F08830D6
:10010000C9F08430B1F4809180008F7D03C080916C
:1001100080008F7780938000089584B58F7784BDA9
:10012000089584B58F7DFBCF8091B0008F77809349
:10013000B00008958091B0008F7DF9CFCF93DF9309
:10014000282F30E0F901E255FF4F8491F901E6567E
:10015000FF4FD491F901EA57FF4FC491CC23A1F08E
:1001600081110E947500EC2FF0E0EE0FFF1FE458A4
:10017000FF4FA591B491EC91ED2381E090E009F45B
:1001800080E0DF91CF91089580E090E0FACF1F9357
:10019000CF93DF93282F30E0F901E255FF4F849190
:1001A000F901E656FF4FD491F901EA57FF4FC49188
:1001B000CC23A9F0162F81110E947500EC2FF0E0DE
:1001C000EE0FFF1FEE58FF4FA591B4918FB7F89433
:1001D000EC91111108C0D095DE23DC938FBFDF9125
:1001E000CF911F910895DE2BF8CFCF93DF9390E04E
:1001F000FC01E656FF4F24918A579F4FFC018491E2
:100200008823D1F090E0880F991FFC01E859FF4F37
:10021000A591B491FC01EE58FF4FC591D4916111A5
:100220000EC09FB7F8948C91E22FE0958E238C93AB
:100230002881E223E8839FBFDF91CF9108958FB794
:10024000F894EC91E22BEC938FBFF6CF1F93CF93F2
:10025000DF93182FEB0161E00E94F500209739F43D
:1002600060E0812FDF91CF911F910C94C700E12FA7
:10027000F0E0E255FF4FE491E33039F148F4E1302A
:10028000B9F0E230E9F0C038D10554F361E0E9CFCC
:10029000E73029F1E83059F1E430A9F78091800086
:1002A000806280938000D0938B00C0938A0004C04A
:1002B00084B5806884BDC7BDDF91CF911F9108953B
:1002C00084B5806284BDC8BDF7CF8091800080680E
:1002D00080938000D0938900C0938800EDCF8091F7
:1002E000B00080688093B000C093B300E5CF8091E8
:1002F000B00080628093B000C093B400DDCF8E5018
:10030000806480937C0080917A00806480937A007E
:1003100080917A0086FDFCCF8091780090917900E1
:1003200008953FB7F8948091050190910601A0913E
:100330000701B091080126B5A89B05C02F3F19F011
:100340000196A11DB11D3FBFBA2FA92F982F882755
:10035000BC01CD01620F711D811D911D42E0660F30
:10036000771F881F991F4A95D1F708958F929F9202
:10037000AF92BF92CF92DF92EF92FF924B015C015E
:100380000E9491016B017C010E9491016C197D0911
:100390008E099F09683E734081059105A8F321E00D
:1003A000821A9108A108B10888EEC80E83E0D81E11
:1003B000E11CF11C81149104A104B10429F7FF9000
:1003C000EF90DF90CF90BF90AF909F908F90089567
:1003D0002FB7F8946091010170910201809103019F
:1003E000909104012FBF0895CF93DF93EC0161E05A
:1003F00086E00E94C700662777276C1B7D0B83E091
:100400000E94260161E085E00E94C70060E084E070
:10041000DF91CF910C94C700009741F460E085E034
:100420000E94C70060E084E00C94C70097FD0C9424
:10043000F401BC0183E00E94260160E085E00E9497
:10044000C70061E0F0CFCF93DF93EC0161E086E07D
:100450000E94C700662777276C1B7D0B89E00E94EE
:10046000260161E087E00E94C70060E088E0DF913C
:10047000CF910C94C700009741F460E087E00E94A0
:10048000C70060E088E00C94C70097FD0C9423023D
:10049000BC0189E00E94260160E087E00E94C7005D
:1004A00061E0F0CF8FE00E947F018032934064F0E2
:1004B0008EE00E947F0131E020E0803293400CF416
:1004C00030E0832F922F089580E090E008951F92EE
:1004D0000F920FB60F9211242F933F938F939F93F8
:1004E000AF93BF938091010190910201A09103010C
:1004F000B09104013091000123E0230F2D3758F50E
:100500000196A11DB11D20930001809301019093DC
:100510000201A0930301B093040180910501909121
:100520000601A0910701B09108010196A11DB11D1E
:100530008093050190930601A0930701B0930801F1
:10054000BF91AF919F918F913F912F910F900FBECF
:100550000F901F90189526E8230F0296A11DB11D3C
:10056000D2CF789484B5826084BD84B5816084BD27
:1005700085B5826085BD85B5816085BD80916E0041
:10058000816080936E001092810080918100826072
:1005900080938100809181008160809381008091AF
:1005A00080008160809380008091B100846080939E
:1005B000B1008091B00081608093B00080917A009A
:1005C000846080937A0080917A00826080937A00C0
:1005D00080917A00816080937A0080917A008068AF
:1005E00080937A001092C10060E082E00E94F500E2
:1005F00061E089E00E94F50061E087E00E94F5007B
:1006000061E088E00E94F50061E083E00E94F5006F
:1006100061E085E00E94F50061E084E00E94F50061
:1006200060E080E10E94F50060E081E10E94F50059
:1006300060E08EE00E94F50060E08FE00E94F5002F
:1006400061E086E00E94C70060E089E00E94C70088
:1006500060E083E00E94C70061E087E00E94C7007D
:1006600061E088E00E94C70061E085E00E94C70069
:1006700061E084E00E94C70090E080E00E943B02BD
:1006800090E080E00E940C02C1E0C12CD12C7601E8
:10069000D1E082E00E949E00892B09F457C001E05E
:1006A00080E0C82E80E0D82EEE24E394F12C61E0A7
:1006B00086E00E94C70060E086E00E94C7008DE0EF
:1006C0000E949E0031E020E0019709F030E0C32F46
:1006D000D22F8CE00E949E00019709F4C2608BE04B
:1006E0000E949E00019709F4C4608AE00E949E0067
:1006F000019709F4C86082E00E949E00019759F4B6
:10070000C130D10541F484E690E00E943B0288ECC0
:1007100090E00E940C0282E00E949E00019709F086
:10072000A6C160E086E00E94C700C230D10509F48E
:1007300067C114F5209709F45DC0C130D10509F4F3
:10074000E8C060E086E00E94C700E5CF0E94E801B3
:100750006C197D098E099F096D337105810591051D
:1007600008F497CF6C2F86E00E94C700CD270E9427
:10077000E8016B017C018DCFC330D10509F44BC179
:10078000C430D105F1F684E690E00E943B0284E695
:1007900090E00E940C0264EF71E080E090E00E9423
:1007A000B6018CE99FEF0E9423028CE99FEF0E9423
:1007B000F40164EF71E080E090E00E94B6018CE902
:1007C0009FEF0E94230284E690E00E940C0264EFF7
:1007D00071E080E090E00E94B60184E690E00E9423
:1007E0003B028CE99FEF0E94F40164EF71E080E02E
:1007F00090E003C10E945202892B09F487C060E097
:1008000086E00E94C70081E10E949E00892B71F062
:1008100080E10E949E00892B49F086E990E00E94C9
:100820003B0286E990E00E940C022FC081E10E9409
:100830009E00892BC9F481E10E949E00892B09F05A
:100840004FC080E10E949E00892B09F449C084E6D4
:1008500090E00E943B0290E080E00E940C02F09247
:100860000A01E092090111C080E10E949E00892BDB
:1008700011F784E690E00E940C0290E080E00E9474
:100880003B0210920A011092090181E59FEF0E943C
:10089000230281E59FEF0E94F40164E670E080E0AE
:1008A00090E00E94B6018FEA90E00E943B0281E551
:1008B0009FEF0E94F4016CE370E080E090E00E9402
:1008C000B60180E00E949E00892B09F43ACF90E0A7
:1008D00080E00E940C0290E080E00E943B0231CF59
:1008E0008091090190910A01892B49F482E390E0FB
:1008F0000E940C0290E080E00E943B02C6CF82E39F
:1009000090E00E943B0290E080E08DCF0E94520276
:10091000BCCF0E945202892B09F455C060E086E0EA
:100920000E94C70081E10E949E00892B71F080E146
:100930000E949E00892B49F086E990E00E943B02CC
:1009400086E990E00E940C02FCCE81E10E949E00AC
:10095000892BB9F481E10E949E00892B21F580E169
:100960000E949E00892BF9F084E690E00E943B02F1
:1009700090E080E00E940C02F0920A01E0920901EE
:10098000E0CE80E10E949E00892B21F784E690E072
:100990000E940C0290E080E00E943B0210920A014B
:1009A00010920901CECE8091090190910A01892B04
:1009B00019F482E390E08DCF82E390E00E943B0245
:1009C00090E080E0BFCF81E59FEF0E94230281E5A8
:1009D0009FEF0E94F40164E670E080E090E00E94E6
:1009E000B6018FEA90E00E943B0281E59FEF0E94F2
:1009F000F4016CE370E080E090E00E94B601A1CECB
:100A00000E945202892BF9F28AEF90E00E943B0289
:100A10008AEF90E097CF0E94E8014B015C010E94B1
:100A20005202892B81F290E080E00E943B0290E02C
:100A300080E00E940C0211E082E00E949E00892B5F
:100A400009F07FCE0E94E801681979098A099B099B
:100A50006D3371058105910578F3612F86E00E9461
:100A6000C70010270E94E8014B015C01E5CFC114CB
:100A7000D10409F41CCE0E94000019CEF894FFCFD7
:107E0000112484B714BE81FFF0D085E080938100F7
:107E100082E08093C00088E18093C10086E0809377
:107E2000C20080E18093C4008EE0C9D0259A86E02C
:107E300020E33CEF91E0309385002093840096BBD3
:107E4000B09BFECF1D9AA8958150A9F7CC24DD24C4
:107E500088248394B5E0AB2EA1E19A2EF3E0BF2EE7
:107E6000A2D0813461F49FD0082FAFD0023811F036
:107E7000013811F484E001C083E08DD089C08234E0
:107E800011F484E103C0853419F485E0A6D080C0E4
:107E9000853579F488D0E82EFF2485D0082F10E0AE
:107EA000102F00270E291F29000F111F8ED06801E7
:107EB0006FC0863521F484E090D080E0DECF843638
:107EC00009F040C070D06FD0082F6DD080E0C81688
:107ED00080E7D80618F4F601B7BEE895C0E0D1E017
:107EE00062D089930C17E1F7F0E0CF16F0E7DF06D8
:107EF00018F0F601B7BEE89568D007B600FCFDCFD4
:107F0000A601A0E0B1E02C9130E011968C91119780
:107F100090E0982F8827822B932B1296FA010C0160
:107F200087BEE89511244E5F5F4FF1E0A038BF0790
:107F300051F7F601A7BEE89507B600FCFDCF97BE46
:107F4000E89526C08437B1F42ED02DD0F82E2BD052
:107F50003CD0F601EF2C8F010F5F1F4F84911BD097
:107F6000EA94F801C1F70894C11CD11CFA94CF0C13
:107F7000D11C0EC0853739F428D08EE10CD085E9AC
:107F80000AD08FE07ACF813511F488E018D01DD067
:107F900080E101D065CF982F8091C00085FFFCCF94
:107FA0009093C60008958091C00087FFFCCF809118
:107FB000C00084FD01C0A8958091C6000895E0E648
:107FC000F0E098E1908380830895EDDF803219F02E
:107FD00088E0F5DFFFCF84E1DECF1F93182FE3DFCA
:107FE0001150E9F7F2DF1F91089580E0E8DFEE27F6
:047FF000FF270994CA
:027FFE00040479
:00000001FF
